:10000000020006020016787FE4F6D8FD758126020C
:0200100002F6F6
:10001300020257C0E0C083C082C0D075D00890BD33
:10002300F17422F01203A790BCF0E0F521C28964B9
:1000330002600302014590BDF17428F01203A790FA
:10004300BCF0E0FC64076003020118FF90BCF0E021
:10005300FE74142FF8A60E0FBF07F1E515F465140F
:100063006003020187E51424AA700302011024C56A
:10007300602F24F1604714605614700302010224B8
:100083001260030201871203A190BCF07410F07F89
:1000930000EF9003919390BCF0F00FBF10F30201B7
:1000A300871203A190BCF07407F07F0074142FF83B
:1000B300E6F490BCF0F00FBF07F202018790BDF1A8
:1000C300741DF01203A790BCF0740EF0020187AF09
:1000D30018AE1712038212037C8F1BE51BC39440D7
:1000E30040047F408002AF1BAB0FAD0BAF13120375
:1000F3005FC3E51B9BF51BEB2513F513020187AFCC
:1001030018AE1712038212037C8F1B807785171298
:10011300851811806FEC606CE514B4A217C3E51B5E
:100123009CF51BAF0C1CEF605B90BCF0E0A813F6D2
:10013300051380EFAF0C1CEF604A90BCF0E0F52292
:1001430080F2E521640A702FE51464A17021E51B98
:10015300C3944040047F408002AF1BAC0FAD0CAF93
:100163001312035FC3E51B9CF51BEC2513F51390DA
:10017300BDF17423F0800DE521B4090890BDF1743D
:1001830023F0C200D0D0D082D083D0E0327F177E5C
:100193000F120341740EFFFE1203417F187E0D12EE
:1001A30003417F197E0C1203417F107E0B12034122
:1001B3007F147E0A1203417F887E091203417F1553
:1001C3007E081203417F307E06120341E51CF46072
:1001D300FBAC1C751CFF7F007E031203417F007E76
:1001E3000312034153043FEC75F00A84FF7409FEC4
:1001F300120341EC75F00A84AFF07408FE12034158
:1002030080CAD28C7511FFE511F47034E510B4FF88
:1002130018E51CF460F1E51CC3944040EA851C100A
:10022300AD107F011202CA80DE1202968F1CE51CFC
:10023300651060D3AD107F021202CA7510FF80C72C
:10024300E511FE7C00E42512FFEC3E7511FFFE1262
:10025300034180B3C0E0C0D075D0087F07C295E4E6
:10026300FEEF139296C297EFC313FFD2970EBE040D
:10027300F0D295751C007E00E51C25E0F51CA2B3A9
:10028300E433421CC297D2970EBE07ECC28BD0D088
:10029300D0E032C2AA7F07C295E4FEEF139296C262
:1002A30097EFC313FFD2970EBE04F0D295E4FFFE7F
:1002B300EF25E0FFA2B3E4334207C297D2970EBE05
:1002C30007EEC28BD2AA22AE077BE87A033000097D
:1002D300EB1B70011AEB4A70F4C2A890BDF1742AAB
:1002E300F01203A790BCF07402F0D200EEF0EDF030
:1002F300D2A8221203B71203211203AC7F037E0498
:100303001203417F8C7E05120341C28B751CFF755E
:1003130010FFD2AF30B50302020512019022C200D2
:1003230074151203A390BCF07402F07F6490BCF0C8
:10033300E064516002DFF6C288C289D2A822C2AA51
:10034300C295E4FDEF139296C297EEC313FEEF132B
:10035300FFD2970DBD0CEDD295D2AA22AE071203A0
:10036300A190BCF0EDF0E4FFEFC39D500BEE2FF82E
:10037300E690BCF0F00F80F0228F13AF1AAE198E07
:10038300238F24852326852425AE25AF26224348A3
:100393003337352F43483435310000000000742BC8
:1003A30090BDF1F07F01DFFE22C296D296C28AC2CF
:0D03B3008BD2AA227FC87EFADEFEDFFA227E
:00000001FF
