:03000000020016E5
:0300030002016E89
:1000130002031FC2AF75810F74FFF580F590F5A041
:10002300F5B0E4F5A8F5B8F5D0F588F589F5877F3F
:10003300FF12034812012C1202C775F00474031255
:1000430002DA75F005748C1202DA7528FF7529FF40
:100053007530FFC28BD2AF20B57F75F00F741712C6
:1000630002DA75F00E740E1202DA75F00D741812BE
:1000730002DA75F00C74191202DA75F00B741012AF
:1000830002DA75F00A74141202DA75F00974881230
:1000930002DA75F00874151202DA75F0067430127C
:1000A30002DA74FFC528FA64FF60F7740075F00381
:1000B3001202DA740075F0031202DAEA543F75F0A3
:1000C3000A8475F0091202DAEA543F75F00A84E5EE
:1000D300F075F0081202DA80C900000000E530B4C0
:1000E300FF38E52964FF701BE52864FF60EBE52812
:1000F300C3944040E4E528F5297801AF2912014A69
:100103000200DC001202FBF528652960CC7802AFFF
:10011300297529FF12014A0200DC008530F0E53120
:100123007530FF1202DA0200DCC27A90BDF1741559
:10013300F00090BCF07402F000E0645170FBC288E0
:10014300D2B8C289D2A82274FF307A070000000017
:10015300D5E0F6C2A890BDF1742AF00090BCF0740B
:1001630002F0E8F0EFF0D27AD2A822C0D0C0E0C00B
:1001730082C083D2D390BDF17422F0000090BCF012
:10018300E0C289B402030201A3B40A0302027AB4EF
:1001930009030202BC8000D083D082D0E0D0D032E9
:1001A30090BDF17428F0000090BCF0E0FF60E8B46B
:1001B30007030201BB02026E7838E0F608DFFBE5B5
:1001C30038F4653970D1E538B4A01090BDF1741DD1
:1001D300F00090BCF0740EF002019AB4A213E53B58
:1001E300F532E53CF533E53DF534E53EF535020101
:1001F3009AB4A143E53BF532E53CF533E53DF534EF
:10020300E53EF535C3E5349440FDE5359400FE4005
:10021300087F408D348E358008AF347534007535D2
:100223000090BDF1742BF00090BCF0EFF0A832E623
:1002330008F0DFFB02019AB4911F90BDF1742BF01B
:100243000090BCF07407FFF07838E6F4F008DFFAAA
:1002530075340075350002019AB4560BE53CF53050
:10026300E53BF53102019A0002019AA8327840E099
:10027300F608DFFB02019AE53445356033C3E53404
:100283009440FDE5359400FE40087F408D348E3563
:100293008008AF3475340075350090BDF1742BF0D0
:1002A3000090BCF0EFF0A832E608F0DFFB0202B3E7
:1002B30090BDF17423F002019A90BDF17423F0C252
:1002C3007A02019AC296D297D296D295D2B3C28AB3
:1002D300C28BC2BAD2AA22C2AAC2957F0813C297FE
:1002E3009296D297DFF7E5F07F0413C2979296D2E6
:1002F30097DFF7D295D2AA22C2AAC29574077F04C8
:1003030013C2979296D297DFF7D295E47F07A2B3F1
:10031300C29733D297DFF7C28BD2AA22C0D0C0E0F4
:10032300C29574F7D313C2979296D297B4FFF5D2BE
:100333009574FCA2B3C29733D29740F7F528D0E067
:10034300D0D0C28B3274FA000000000000D5E0F771
:03035300DFF322B3
:00000001FF
