:100000000200BA020006C0E0C083C082C0D075D032
:10001000087F221200D0EF24F660422408703E7F51
:10002000281200AC1200D3CDEFCDE4FEEEC39D50FC
:100030000D1200D374102EF8C6EFC60E80EE7F2B83
:100040001200ACCFEDCF1200E27E00EEC39D501245
:1000500074102EF8E6F4FF1200E20E80EE7F2312F9
:1000600000ACD0D0D082D083D0E0327F061200AC7A
:100070007F551200E27DAA1200D3EF6D60117D5012
:100080007F051200D0DDF9E4FF1200AC1200D97F29
:10009000151200AC7F021200E27D641200D3EF64FF
:1000A000516002DDF6C288C289D2A822CEEFCE12FC
:1000B00000E890BDF1EEF00200E8787FE4F6D8FDAC
:1000C00075814F0200C61200D912006BD2AF80FEBC
:1000D0001200AC90BCF0E0FF227FC87EFADEFEDFAB
:0D00E000FA2290BCF0EFF0227F02DFFE223A
:00000001FF
