:1000000002015F020006C0E0C083C082C0D075D08C
:100010000890BDF17422F012017190BCF0E0FDC2B5
:1000200089640260030200B690BDF17428F01201E9
:100030007190BCF0E0FE70030200E3E0F561B423D0
:100040000F1EEE70030200E390BCF0E0F51080F1AB
:100050008E627821A6611EEE60080890BCF0E0F682
:1000600080F4E561B4221412016B7E4090BCF0EE86
:10007000F090BCF0E58AF0DEF88068E561B420130A
:1000800090BDF1741DF012017190BCF0740EF0C2BD
:10009000018050E5616421701912016B7821AE6214
:1000A00090BCF0EEF0603CE6F490BCF0F008DEF7B7
:1000B0008031D200802DBD0A21E561B422121201E7
:1000C0006B7E4090BCF0EEF090BCF0E58AF0DEF87C
:1000D00090BDF17423F0D2018009BD090690BDF1F5
:1000E0007423F0D0D0D082D083D0E03212017612C7
:1000F000012312017F7F017E041201457F887E0566
:10010000120145E4FCECFB4408FEEBFF1201450C38
:10011000BC08F2D2AFD28C3000FD7F007E0312010A
:100120004580F4C200C201741512016D90BCF074D8
:1001300002F07F6490BCF0E064516002DFF6C28898
:10014000C289D2A822C295E4FDEF139296C297EE1F
:10015000C313FEEF13FFD2970DBD0CEDD29522789D
:100160007FE4F6D8FD7581620200EC742B90BDF13E
:10017000F07F01DFFE227FC87EFADEFEDFFA22C2B8
:0401800096D296225B
:00000001FF
