:03000000020006F5
:100003000200F1C2AF75810F74FFF580F590F5A082
:10001300F5B0E4F5A8F5B8F5D0F588F589F5877559
:100023003E007FFF1200681200A012007675F004F4
:10003300740112008375F00574881200837E087DB5
:10004300087C018DF0EC0D0C120083DEF6D2AFD2EA
:100053008C003078FCC278E53F60F675F0037400DD
:1000630012008380EC74FA000000000000D5E0F772
:10007300DFF322C296D297D296D295D2B3C2AA22E6
:10008300C2957F0813C2979296D297DFF7E5F07F68
:100093000413C2979296D297DFF7D29522C278C201
:1000A3007990BDF17415F00090BCF07402F000E09B
:1000B300645170FBC288D2B8C289D2A8222079FDCC
:1000C300C2A890BDF1742BF00090BCF0EFF0E608ED
:1000D300F0DFFBD279D2A822C2A890BDF1742AF036
:1000E3000090BCF0EFF0E608F0DFFBD2A822C0D00E
:1000F300C0E0C082C08390BDF17422F0000090BCC8
:10010300F0E0C289B40203020124B40A0302019D90
:10011300B409030201AF8000D083D082D0E0D0D0F5
:100123003290BDF17428F0000090BCF0E0FA60E872
:10013300E0F53EB423078001E0DAFD80DB79408AF5
:100143003F8001E0F709DAFBE540B4221590BDF1E9
:10015300742BF00090BCF07440F0FFE58AF0DFFDF3
:10016300803FB420130090BDF1741DF00090BCF0EB
:10017300740EF0C27902011BB4211A0090BDF17410
:100183002BF00090BCF0E53FF0FA7940E7F4F0097A
:10019300DAFA02011BD27802011BE53EB422028087
:1001A300AC90BDF17423F0C27902011B90BDF174D0
:0501B30023F002011B16
:00000001FF
